{
  "contractName": "Test",
  "abi": [
    {
      "constant": true,
      "inputs": [],
      "name": "getTotal",
      "outputs": [
        {
          "name": "",
          "type": "uint256"
        }
      ],
      "payable": false,
      "stateMutability": "view",
      "type": "function"
    }
  ],
  "bytecode": "0x6080604052600a600055348015601457600080fd5b5060a1806100236000396000f300608060405260043610603f576000357c0100000000000000000000000000000000000000000000000000000000900463ffffffff168063775a25e3146044575b600080fd5b348015604f57600080fd5b506056606c565b6040518082815260200191505060405180910390f35b600080549050905600a165627a7a72305820670189d4c7c963acfd903a5fb503009ab1d3906a4396acc14d11664b656a91380029",
  "source": "pragma solidity ^0.4.17;\ncontract Test{\n\tuint total = 10;\n\tfunction getTotal() public view returns(uint) {\n\t\treturn total;\n\t}\n}\n",
  "sourcePath": "/home/ahcl/Line/Training/contracts/Test.sol",
  "compiler": {
    "name": "solc",
    "version": "0.4.23+commit.124ca40d.Emscripten.clang"
  },
  "schemaVersion": "2.0.0",
  "updatedAt": "2018-04-28T16:16:11.036Z"
}